{
  "contractName": "Invoice",
  "abi": [
    {
      "anonymous": false,
      "inputs": [
        {
          "indexed": false,
          "internalType": "uint256",
          "name": "productId",
          "type": "uint256"
        },
        {
          "indexed": false,
          "internalType": "address",
          "name": "buyerPAN",
          "type": "address"
        }
      ],
      "name": "bought",
      "type": "event"
    },
    {
      "anonymous": false,
      "inputs": [
        {
          "indexed": false,
          "internalType": "string",
          "name": "title",
          "type": "string"
        },
        {
          "indexed": false,
          "internalType": "uint256",
          "name": "productId",
          "type": "uint256"
        },
        {
          "indexed": false,
          "internalType": "address",
          "name": "sellerPAN",
          "type": "address"
        }
      ],
      "name": "registered",
      "type": "event"
    },
    {
      "inputs": [
        {
          "internalType": "string",
          "name": "_title",
          "type": "string"
        },
        {
          "internalType": "string",
          "name": "_desc",
          "type": "string"
        },
        {
          "internalType": "uint256",
          "name": "_price",
          "type": "uint256"
        }
      ],
      "name": "registerProduct",
      "outputs": [],
      "stateMutability": "nonpayable",
      "type": "function"
    },
    {
      "inputs": [
        {
          "internalType": "uint256",
          "name": "_productId",
          "type": "uint256"
        }
      ],
      "name": "buy",
      "outputs": [],
      "stateMutability": "payable",
      "type": "function",
      "payable": true
    },
    {
      "inputs": [
        {
          "internalType": "address",
          "name": "_address",
          "type": "address"
        }
      ],
      "name": "noOfItemsBoughtBy",
      "outputs": [
        {
          "internalType": "uint256",
          "name": "",
          "type": "uint256"
        }
      ],
      "stateMutability": "view",
      "type": "function",
      "constant": true
    },
    {
      "inputs": [
        {
          "internalType": "address",
          "name": "_address",
          "type": "address"
        }
      ],
      "name": "getProductIdOfItemsBoughtByBuyer",
      "outputs": [
        {
          "internalType": "uint256[]",
          "name": "",
          "type": "uint256[]"
        }
      ],
      "stateMutability": "view",
      "type": "function",
      "constant": true
    },
    {
      "inputs": [
        {
          "internalType": "address",
          "name": "_address",
          "type": "address"
        },
        {
          "internalType": "uint256",
          "name": "_productId",
          "type": "uint256"
        }
      ],
      "name": "getDetailsOfProductBoughtBy",
      "outputs": [
        {
          "components": [
            {
              "internalType": "string",
              "name": "title",
              "type": "string"
            },
            {
              "internalType": "string",
              "name": "desc",
              "type": "string"
            },
            {
              "internalType": "address payable",
              "name": "sellerPAN",
              "type": "address"
            },
            {
              "internalType": "uint256",
              "name": "productId",
              "type": "uint256"
            },
            {
              "internalType": "uint256",
              "name": "price",
              "type": "uint256"
            },
            {
              "internalType": "address",
              "name": "buyerPAN",
              "type": "address"
            },
            {
              "internalType": "bool",
              "name": "registered",
              "type": "bool"
            },
            {
              "internalType": "bool",
              "name": "bought",
              "type": "bool"
            }
          ],
          "internalType": "struct Invoice.Product",
          "name": "",
          "type": "tuple"
        }
      ],
      "stateMutability": "view",
      "type": "function",
      "constant": true
    },
    {
      "inputs": [
        {
          "internalType": "address",
          "name": "_address",
          "type": "address"
        },
        {
          "internalType": "uint256",
          "name": "_productId",
          "type": "uint256"
        }
      ],
      "name": "checkPaymentStatus",
      "outputs": [
        {
          "internalType": "bool",
          "name": "",
          "type": "bool"
        }
      ],
      "stateMutability": "view",
      "type": "function",
      "constant": true
    }
  ],
  "bytecode": "0x6080604052600160005534801561001557600080fd5b50611c21806100256000396000f3fe6080604052600436106100555760003560e01c806317376f781461005a5780633153a15b14610097578063626e4b07146100c0578063bff0d4e4146100fd578063d96a094a1461013a578063df7d1f0114610156575b600080fd5b34801561006657600080fd5b50610081600480360381019061007c91906111fa565b610193565b60405161008e9190611255565b60405180910390f35b3480156100a357600080fd5b506100be60048036038101906100b991906113b6565b6101fb565b005b3480156100cc57600080fd5b506100e760048036038101906100e29190611441565b610470565b6040516100f4919061147d565b60405180910390f35b34801561010957600080fd5b50610124600480360381019061011f91906111fa565b6104b9565b6040516101319190611625565b60405180910390f35b610154600480360381019061014f9190611647565b61073f565b005b34801561016257600080fd5b5061017d60048036038101906101789190611441565b610f16565b60405161018a9190611723565b60405180910390f35b6000600760008473ffffffffffffffffffffffffffffffffffffffff1673ffffffffffffffffffffffffffffffffffffffff168152602001908152602001600020600083815260200190815260200160002060009054906101000a900460ff16905092915050565b6000811161023e576040517f08c379a0000000000000000000000000000000000000000000000000000000008152600401610235906117c8565b60405180910390fd5b610246610fad565b838160000181905250828160200181905250670de0b6b3a76400008261026c9190611817565b81608001818152505033816040019073ffffffffffffffffffffffffffffffffffffffff16908173ffffffffffffffffffffffffffffffffffffffff168152505060005481606001818152505060018160c001901515908115158152505060018190806001815401808255809150506001900390600052602060002090600602016000909190919091506000820151816000019080519060200190610312929190611022565b50602082015181600101908051906020019061032f929190611022565b5060408201518160020160006101000a81548173ffffffffffffffffffffffffffffffffffffffff021916908373ffffffffffffffffffffffffffffffffffffffff160217905550606082015181600301556080820151816004015560a08201518160050160006101000a81548173ffffffffffffffffffffffffffffffffffffffff021916908373ffffffffffffffffffffffffffffffffffffffff16021790555060c08201518160050160146101000a81548160ff02191690831515021790555060e08201518160050160156101000a81548160ff021916908315150217905550505060008081548092919061042690611871565b91905055507f2f2d57060110e728629fcdcfd43a3b0f571b51ca1899668910d777e935601e3e8482606001513360405161046293929190611901565b60405180910390a150505050565b6000600460008373ffffffffffffffffffffffffffffffffffffffff1673ffffffffffffffffffffffffffffffffffffffff168152602001908152602001600020549050919050565b6104c1610fad565b600660008473ffffffffffffffffffffffffffffffffffffffff1673ffffffffffffffffffffffffffffffffffffffff16815260200190815260200160002060008381526020019081526020016000206040518061010001604052908160008201805461052d9061196e565b80601f01602080910402602001604051908101604052809291908181526020018280546105599061196e565b80156105a65780601f1061057b576101008083540402835291602001916105a6565b820191906000526020600020905b81548152906001019060200180831161058957829003601f168201915b505050505081526020016001820180546105bf9061196e565b80601f01602080910402602001604051908101604052809291908181526020018280546105eb9061196e565b80156106385780601f1061060d57610100808354040283529160200191610638565b820191906000526020600020905b81548152906001019060200180831161061b57829003601f168201915b505050505081526020016002820160009054906101000a900473ffffffffffffffffffffffffffffffffffffffff1673ffffffffffffffffffffffffffffffffffffffff1673ffffffffffffffffffffffffffffffffffffffff16815260200160038201548152602001600482015481526020016005820160009054906101000a900473ffffffffffffffffffffffffffffffffffffffff1673ffffffffffffffffffffffffffffffffffffffff1673ffffffffffffffffffffffffffffffffffffffff1681526020016005820160149054906101000a900460ff161515151581526020016005820160159054906101000a900460ff161515151581525050905092915050565b346001808361074e919061199f565b8154811061075f5761075e6119d3565b5b906000526020600020906006020160040154146107b1576040517f08c379a00000000000000000000000000000000000000000000000000000000081526004016107a890611a74565b60405180910390fd5b3373ffffffffffffffffffffffffffffffffffffffff16600180836107d6919061199f565b815481106107e7576107e66119d3565b5b906000526020600020906006020160020160009054906101000a900473ffffffffffffffffffffffffffffffffffffffff1673ffffffffffffffffffffffffffffffffffffffff160361086f576040517f08c379a000000000000000000000000000000000000000000000000000000000815260040161086690611ae0565b60405180910390fd5b336001808361087e919061199f565b8154811061088f5761088e6119d3565b5b906000526020600020906006020160050160006101000a81548173ffffffffffffffffffffffffffffffffffffffff021916908373ffffffffffffffffffffffffffffffffffffffff1602179055506001806001836108ee919061199f565b815481106108ff576108fe6119d3565b5b906000526020600020906006020160050160156101000a81548160ff02191690831515021790555060001515600360003373ffffffffffffffffffffffffffffffffffffffff1673ffffffffffffffffffffffffffffffffffffffff16815260200190815260200160002060009054906101000a900460ff16151503610a33576002339080600181540180825580915050600190039060005260206000200160009091909190916101000a81548173ffffffffffffffffffffffffffffffffffffffff021916908373ffffffffffffffffffffffffffffffffffffffff16021790555060011515600360003373ffffffffffffffffffffffffffffffffffffffff1673ffffffffffffffffffffffffffffffffffffffff16815260200190815260200160002060009054906101000a905050505b6001600460003373ffffffffffffffffffffffffffffffffffffffff1673ffffffffffffffffffffffffffffffffffffffff1681526020019081526020016000206000828254610a839190611b00565b92505081905550600560003373ffffffffffffffffffffffffffffffffffffffff1673ffffffffffffffffffffffffffffffffffffffff16815260200190815260200160002081908060018154018082558091505060019003906000526020600020016000909190919091505560018082610afe919061199f565b81548110610b0f57610b0e6119d3565b5b9060005260206000209060060201600660003373ffffffffffffffffffffffffffffffffffffffff1673ffffffffffffffffffffffffffffffffffffffff16815260200190815260200160002060008381526020019081526020016000206000820181600001908054610b819061196e565b610b8c9291906110a8565b506001820181600101908054610ba19061196e565b610bac9291906110a8565b506002820160009054906101000a900473ffffffffffffffffffffffffffffffffffffffff168160020160006101000a81548173ffffffffffffffffffffffffffffffffffffffff021916908373ffffffffffffffffffffffffffffffffffffffff16021790555060038201548160030155600482015481600401556005820160009054906101000a900473ffffffffffffffffffffffffffffffffffffffff168160050160006101000a81548173ffffffffffffffffffffffffffffffffffffffff021916908373ffffffffffffffffffffffffffffffffffffffff1602179055506005820160149054906101000a900460ff168160050160146101000a81548160ff0219169083151502179055506005820160159054906101000a900460ff168160050160156101000a81548160ff0219169083151502179055509050503373ffffffffffffffffffffffffffffffffffffffff1660018083610d11919061199f565b81548110610d2257610d216119d3565b5b906000526020600020906006020160050160009054906101000a900473ffffffffffffffffffffffffffffffffffffffff1673ffffffffffffffffffffffffffffffffffffffff1614610daa576040517f08c379a0000000000000000000000000000000000000000000000000000000008152600401610da190611ba2565b60405180910390fd5b60018082610db8919061199f565b81548110610dc957610dc86119d3565b5b906000526020600020906006020160020160009054906101000a900473ffffffffffffffffffffffffffffffffffffffff1673ffffffffffffffffffffffffffffffffffffffff166108fc60018084610e22919061199f565b81548110610e3357610e326119d3565b5b9060005260206000209060060201600401549081150290604051600060405180830381858888f19350505050158015610e70573d6000803e3d6000fd5b506001600760003373ffffffffffffffffffffffffffffffffffffffff1673ffffffffffffffffffffffffffffffffffffffff168152602001908152602001600020600083815260200190815260200160002060006101000a81548160ff0219169083151502179055507f2c9b5e9655a41ab13c5183c231239df125ecbd546a947624c913cfd43094906e8133604051610f0b929190611bc2565b60405180910390a150565b6060600560008373ffffffffffffffffffffffffffffffffffffffff1673ffffffffffffffffffffffffffffffffffffffff168152602001908152602001600020805480602002602001604051908101604052809291908181526020018280548015610fa157602002820191906000526020600020905b815481526020019060010190808311610f8d575b50505050509050919050565b6040518061010001604052806060815260200160608152602001600073ffffffffffffffffffffffffffffffffffffffff1681526020016000815260200160008152602001600073ffffffffffffffffffffffffffffffffffffffff1681526020016000151581526020016000151581525090565b82805461102e9061196e565b90600052602060002090601f0160209004810192826110505760008555611097565b82601f1061106957805160ff1916838001178555611097565b82800160010185558215611097579182015b8281111561109657825182559160200191906001019061107b565b5b5090506110a49190611135565b5090565b8280546110b49061196e565b90600052602060002090601f0160209004810192826110d65760008555611124565b82601f106110e75780548555611124565b8280016001018555821561112457600052602060002091601f016020900482015b82811115611123578254825591600101919060010190611108565b5b5090506111319190611135565b5090565b5b8082111561114e576000816000905550600101611136565b5090565b6000604051905090565b600080fd5b600080fd5b600073ffffffffffffffffffffffffffffffffffffffff82169050919050565b600061119182611166565b9050919050565b6111a181611186565b81146111ac57600080fd5b50565b6000813590506111be81611198565b92915050565b6000819050919050565b6111d7816111c4565b81146111e257600080fd5b50565b6000813590506111f4816111ce565b92915050565b600080604083850312156112115761121061115c565b5b600061121f858286016111af565b9250506020611230858286016111e5565b9150509250929050565b60008115159050919050565b61124f8161123a565b82525050565b600060208201905061126a6000830184611246565b92915050565b600080fd5b600080fd5b6000601f19601f8301169050919050565b7f4e487b7100000000000000000000000000000000000000000000000000000000600052604160045260246000fd5b6112c38261127a565b810181811067ffffffffffffffff821117156112e2576112e161128b565b5b80604052505050565b60006112f5611152565b905061130182826112ba565b919050565b600067ffffffffffffffff8211156113215761132061128b565b5b61132a8261127a565b9050602081019050919050565b82818337600083830152505050565b600061135961135484611306565b6112eb565b90508281526020810184848401111561137557611374611275565b5b611380848285611337565b509392505050565b600082601f83011261139d5761139c611270565b5b81356113ad848260208601611346565b91505092915050565b6000806000606084860312156113cf576113ce61115c565b5b600084013567ffffffffffffffff8111156113ed576113ec611161565b5b6113f986828701611388565b935050602084013567ffffffffffffffff81111561141a57611419611161565b5b61142686828701611388565b9250506040611437868287016111e5565b9150509250925092565b6000602082840312156114575761145661115c565b5b6000611465848285016111af565b91505092915050565b611477816111c4565b82525050565b6000602082019050611492600083018461146e565b92915050565b600081519050919050565b600082825260208201905092915050565b60005b838110156114d25780820151818401526020810190506114b7565b838111156114e1576000848401525b50505050565b60006114f282611498565b6114fc81856114a3565b935061150c8185602086016114b4565b6115158161127a565b840191505092915050565b600061152b82611166565b9050919050565b61153b81611520565b82525050565b61154a816111c4565b82525050565b61155981611186565b82525050565b6115688161123a565b82525050565b600061010083016000830151848203600086015261158c82826114e7565b915050602083015184820360208601526115a682826114e7565b91505060408301516115bb6040860182611532565b5060608301516115ce6060860182611541565b5060808301516115e16080860182611541565b5060a08301516115f460a0860182611550565b5060c083015161160760c086018261155f565b5060e083015161161a60e086018261155f565b508091505092915050565b6000602082019050818103600083015261163f818461156e565b905092915050565b60006020828403121561165d5761165c61115c565b5b600061166b848285016111e5565b91505092915050565b600081519050919050565b600082825260208201905092915050565b6000819050602082019050919050565b60006116ac8383611541565b60208301905092915050565b6000602082019050919050565b60006116d082611674565b6116da818561167f565b93506116e583611690565b8060005b838110156117165781516116fd88826116a0565b9750611708836116b8565b9250506001810190506116e9565b5085935050505092915050565b6000602082019050818103600083015261173d81846116c5565b905092915050565b600082825260208201905092915050565b7f5468652050726963652073686f756c642062652067726561746572207468616e60008201527f207a65726f000000000000000000000000000000000000000000000000000000602082015250565b60006117b2602583611745565b91506117bd82611756565b604082019050919050565b600060208201905081810360008301526117e1816117a5565b9050919050565b7f4e487b7100000000000000000000000000000000000000000000000000000000600052601160045260246000fd5b6000611822826111c4565b915061182d836111c4565b9250817fffffffffffffffffffffffffffffffffffffffffffffffffffffffffffffffff0483118215151615611866576118656117e8565b5b828202905092915050565b600061187c826111c4565b91507fffffffffffffffffffffffffffffffffffffffffffffffffffffffffffffffff82036118ae576118ad6117e8565b5b600182019050919050565b60006118c482611498565b6118ce8185611745565b93506118de8185602086016114b4565b6118e78161127a565b840191505092915050565b6118fb81611186565b82525050565b6000606082019050818103600083015261191b81866118b9565b905061192a602083018561146e565b61193760408301846118f2565b949350505050565b7f4e487b7100000000000000000000000000000000000000000000000000000000600052602260045260246000fd5b6000600282049050600182168061198657607f821691505b6020821081036119995761199861193f565b5b50919050565b60006119aa826111c4565b91506119b5836111c4565b9250828210156119c8576119c76117e8565b5b828203905092915050565b7f4e487b7100000000000000000000000000000000000000000000000000000000600052603260045260246000fd5b7f5061792074686520657861637420616d6f756e74206f66207468652070726f6460008201527f7563740000000000000000000000000000000000000000000000000000000000602082015250565b6000611a5e602383611745565b9150611a6982611a02565b604082019050919050565b60006020820190508181036000830152611a8d81611a51565b9050919050565b7f73656c6c657250414e2063616e6e6f742062652074686520627579657250414e600082015250565b6000611aca602083611745565b9150611ad582611a94565b602082019050919050565b60006020820190508181036000830152611af981611abd565b9050919050565b6000611b0b826111c4565b9150611b16836111c4565b9250827fffffffffffffffffffffffffffffffffffffffffffffffffffffffffffffffff03821115611b4b57611b4a6117e8565b5b828201905092915050565b7f4f6e6c7920627579657250414e2063616e20636f6e6669726d20697400000000600082015250565b6000611b8c601c83611745565b9150611b9782611b56565b602082019050919050565b60006020820190508181036000830152611bbb81611b7f565b9050919050565b6000604082019050611bd7600083018561146e565b611be460208301846118f2565b939250505056fea2646970667358221220711fc328fe3998eb1c323ce11be2b6f465b51828ed2940b6334a43c1f3ccd04b64736f6c634300080d0033",
  "immutableReferences": {},
  "source": "// SPDX-License-Identifier: MIT\r\npragma solidity <0.9.0;\r\n\r\ncontract Invoice {\r\n\r\n    struct Product {\r\n        string title;\r\n        string desc;\r\n        address payable sellerPAN;\r\n        uint productId;\r\n        uint price;\r\n        address buyerPAN;\r\n        bool registered; // registered means product registered by seller\r\n        bool bought;     // bought means product bought by buyer\r\n    }\r\n\r\n    uint counter = 1;\r\n    Product[] private products;\r\n    address[] private buyers;\r\n\r\n    mapping(address => bool) isBuyer;\r\n    mapping(address => uint) noOfItemsBoughtByBuyer;\r\n    mapping(address => uint[]) productIdOfItemsBoughtByBuyer;\r\n    mapping(address => mapping(uint => Product)) detailsOfProductBoughtByBuyer;\r\n    mapping(address => mapping(uint => bool)) paymentStatus;\r\n\r\n\r\n    event registered(string title, uint productId, address sellerPAN);\r\n    event bought(uint productId, address buyerPAN);\r\n    \r\n    function registerProduct(string memory _title, string memory _desc, uint _price) public {\r\n        require(_price > 0, 'The Price should be greater than zero');\r\n        Product memory tempProduct;\r\n        tempProduct.title = _title;\r\n        tempProduct.desc = _desc;\r\n        tempProduct.price = _price * 10 ** 18;\r\n        tempProduct.sellerPAN = payable(msg.sender);\r\n        tempProduct.productId = counter;\r\n        tempProduct.registered = true;\r\n        products.push(tempProduct);\r\n        counter++;\r\n        emit registered(_title, tempProduct.productId, msg.sender);\r\n    }\r\n\r\n    function buy(uint _productId) payable public{\r\n        require(products[_productId-1].price == msg.value, 'Pay the exact amount of the product');\r\n        require(products[_productId-1].sellerPAN != msg.sender, 'sellerPAN cannot be the buyerPAN');\r\n        products[_productId-1].buyerPAN = msg.sender;\r\n        products[_productId-1].bought = true;\r\n        if(isBuyer[msg.sender] == false){\r\n            buyers.push(msg.sender);\r\n            isBuyer[msg.sender] == true;\r\n        }\r\n        noOfItemsBoughtByBuyer[msg.sender] += 1;\r\n        productIdOfItemsBoughtByBuyer[msg.sender].push(_productId);\r\n        detailsOfProductBoughtByBuyer[msg.sender][_productId] = products[_productId-1];\r\n        require(products[_productId-1].buyerPAN == msg.sender, 'Only buyerPAN can confirm it');\r\n        products[_productId-1].sellerPAN.transfer(products[_productId-1].price);\r\n        paymentStatus[msg.sender][_productId] = true;\r\n        emit bought(_productId, msg.sender);\r\n    }\r\n\r\n    function noOfItemsBoughtBy(address _address) public view returns(uint) {\r\n        return noOfItemsBoughtByBuyer[_address];\r\n    }\r\n\r\n    function getProductIdOfItemsBoughtByBuyer(address _address) public view returns(uint[] memory) {\r\n        return productIdOfItemsBoughtByBuyer[_address];\r\n    }\r\n    \r\n    function getDetailsOfProductBoughtBy(address _address, uint _productId) public view returns(Product memory){\r\n        return detailsOfProductBoughtByBuyer[_address][_productId];\r\n    }\r\n\r\n    function checkPaymentStatus(address _address, uint _productId) public view returns(bool) {\r\n        return paymentStatus[_address][_productId];\r\n    }\r\n    \r\n}\r\n",
  "sourcePath": "D:\\Blockchain\\e-commerce-platform-evm\\src\\contracts\\Invoice.sol",
  "compiler": {
    "name": "solc",
    "version": "0.8.13+commit.abaa5c0e.Emscripten.clang"
  },
  "schemaVersion": "3.4.9",
  "updatedAt": "2022-12-22T21:24:11.016Z",
  "networkType": "ethereum",
  "devdoc": {
    "kind": "dev",
    "methods": {},
    "version": 1
  },
  "userdoc": {
    "kind": "user",
    "methods": {},
    "version": 1
  }
}