{
  "contractName": "Invoice",
  "abi": [
    {
      "anonymous": false,
      "inputs": [
        {
          "indexed": false,
          "internalType": "uint256",
          "name": "productId",
          "type": "uint256"
        },
        {
          "indexed": false,
          "internalType": "address",
          "name": "buyerPAN",
          "type": "address"
        }
      ],
      "name": "bought",
      "type": "event"
    },
    {
      "anonymous": false,
      "inputs": [
        {
          "indexed": false,
          "internalType": "string",
          "name": "title",
          "type": "string"
        },
        {
          "indexed": false,
          "internalType": "uint256",
          "name": "productId",
          "type": "uint256"
        },
        {
          "indexed": false,
          "internalType": "address",
          "name": "sellerPAN",
          "type": "address"
        }
      ],
      "name": "registered",
      "type": "event"
    },
    {
      "inputs": [
        {
          "internalType": "uint256",
          "name": "",
          "type": "uint256"
        }
      ],
      "name": "buyers",
      "outputs": [
        {
          "internalType": "address",
          "name": "",
          "type": "address"
        }
      ],
      "stateMutability": "view",
      "type": "function",
      "constant": true
    },
    {
      "inputs": [
        {
          "internalType": "uint256",
          "name": "",
          "type": "uint256"
        }
      ],
      "name": "products",
      "outputs": [
        {
          "internalType": "string",
          "name": "title",
          "type": "string"
        },
        {
          "internalType": "string",
          "name": "desc",
          "type": "string"
        },
        {
          "internalType": "address payable",
          "name": "sellerPAN",
          "type": "address"
        },
        {
          "internalType": "uint256",
          "name": "productId",
          "type": "uint256"
        },
        {
          "internalType": "uint256",
          "name": "price",
          "type": "uint256"
        },
        {
          "internalType": "address",
          "name": "buyerPAN",
          "type": "address"
        },
        {
          "internalType": "bool",
          "name": "registered",
          "type": "bool"
        },
        {
          "internalType": "bool",
          "name": "bought",
          "type": "bool"
        }
      ],
      "stateMutability": "view",
      "type": "function",
      "constant": true
    },
    {
      "inputs": [
        {
          "internalType": "string",
          "name": "_title",
          "type": "string"
        },
        {
          "internalType": "string",
          "name": "_desc",
          "type": "string"
        },
        {
          "internalType": "uint256",
          "name": "_price",
          "type": "uint256"
        }
      ],
      "name": "registerProduct",
      "outputs": [],
      "stateMutability": "nonpayable",
      "type": "function"
    },
    {
      "inputs": [
        {
          "internalType": "uint256",
          "name": "_productId",
          "type": "uint256"
        }
      ],
      "name": "buy",
      "outputs": [],
      "stateMutability": "payable",
      "type": "function",
      "payable": true
    },
    {
      "inputs": [
        {
          "internalType": "address",
          "name": "_address",
          "type": "address"
        }
      ],
      "name": "noOfItemsBoughtBy",
      "outputs": [
        {
          "internalType": "uint256",
          "name": "",
          "type": "uint256"
        }
      ],
      "stateMutability": "view",
      "type": "function",
      "constant": true
    },
    {
      "inputs": [
        {
          "internalType": "address",
          "name": "_address",
          "type": "address"
        },
        {
          "internalType": "uint256",
          "name": "_productId",
          "type": "uint256"
        }
      ],
      "name": "getDetailsOfProductBoughtBy",
      "outputs": [
        {
          "components": [
            {
              "internalType": "string",
              "name": "title",
              "type": "string"
            },
            {
              "internalType": "string",
              "name": "desc",
              "type": "string"
            },
            {
              "internalType": "address payable",
              "name": "sellerPAN",
              "type": "address"
            },
            {
              "internalType": "uint256",
              "name": "productId",
              "type": "uint256"
            },
            {
              "internalType": "uint256",
              "name": "price",
              "type": "uint256"
            },
            {
              "internalType": "address",
              "name": "buyerPAN",
              "type": "address"
            },
            {
              "internalType": "bool",
              "name": "registered",
              "type": "bool"
            },
            {
              "internalType": "bool",
              "name": "bought",
              "type": "bool"
            }
          ],
          "internalType": "struct Invoice.Product",
          "name": "",
          "type": "tuple"
        }
      ],
      "stateMutability": "view",
      "type": "function",
      "constant": true
    },
    {
      "inputs": [
        {
          "internalType": "address",
          "name": "_address",
          "type": "address"
        },
        {
          "internalType": "uint256",
          "name": "_productId",
          "type": "uint256"
        }
      ],
      "name": "checkPaymentStatus",
      "outputs": [
        {
          "internalType": "bool",
          "name": "",
          "type": "bool"
        }
      ],
      "stateMutability": "view",
      "type": "function",
      "constant": true
    }
  ],
  "bytecode": "0x6080604052600160005534801561001557600080fd5b50611d6e806100256000396000f3fe6080604052600436106100705760003560e01c80637acc0b201161004e5780637acc0b2014610118578063bff0d4e41461015c578063d96a094a14610199578063f2aa8218146101b557610070565b806317376f78146100755780633153a15b146100b2578063626e4b07146100db575b600080fd5b34801561008157600080fd5b5061009c60048036038101906100979190611362565b6101f2565b6040516100a991906113bd565b60405180910390f35b3480156100be57600080fd5b506100d960048036038101906100d4919061151e565b61025f565b005b3480156100e757600080fd5b5061010260048036038101906100fd91906115a9565b6104d4565b60405161010f91906115e5565b60405180910390f35b34801561012457600080fd5b5061013f600480360381019061013a9190611600565b61051d565b6040516101539897969594939291906116e5565b60405180910390f35b34801561016857600080fd5b50610183600480360381019061017e9190611362565b6106df565b60405161019091906118ae565b60405180910390f35b6101b360048036038101906101ae9190611600565b610965565b005b3480156101c157600080fd5b506101dc60048036038101906101d79190611600565b6110d6565b6040516101e991906118d0565b60405180910390f35b600080600660008573ffffffffffffffffffffffffffffffffffffffff1673ffffffffffffffffffffffffffffffffffffffff168152602001908152602001600020600084815260200190815260200160002060009054906101000a900460ff1690508091505092915050565b600081116102a2576040517f08c379a00000000000000000000000000000000000000000000000000000000081526004016102999061195d565b60405180910390fd5b6102aa611115565b838160000181905250828160200181905250670de0b6b3a7640000826102d091906119ac565b81608001818152505033816040019073ffffffffffffffffffffffffffffffffffffffff16908173ffffffffffffffffffffffffffffffffffffffff168152505060005481606001818152505060018160c00190151590811515815250506001819080600181540180825580915050600190039060005260206000209060060201600090919091909150600082015181600001908051906020019061037692919061118a565b50602082015181600101908051906020019061039392919061118a565b5060408201518160020160006101000a81548173ffffffffffffffffffffffffffffffffffffffff021916908373ffffffffffffffffffffffffffffffffffffffff160217905550606082015181600301556080820151816004015560a08201518160050160006101000a81548173ffffffffffffffffffffffffffffffffffffffff021916908373ffffffffffffffffffffffffffffffffffffffff16021790555060c08201518160050160146101000a81548160ff02191690831515021790555060e08201518160050160156101000a81548160ff021916908315150217905550505060008081548092919061048a90611a06565b91905055507f2f2d57060110e728629fcdcfd43a3b0f571b51ca1899668910d777e935601e3e848260600151336040516104c693929190611a4e565b60405180910390a150505050565b6000600460008373ffffffffffffffffffffffffffffffffffffffff1673ffffffffffffffffffffffffffffffffffffffff168152602001908152602001600020549050919050565b6001818154811061052d57600080fd5b906000526020600020906006020160009150905080600001805461055090611abb565b80601f016020809104026020016040519081016040528092919081815260200182805461057c90611abb565b80156105c95780601f1061059e576101008083540402835291602001916105c9565b820191906000526020600020905b8154815290600101906020018083116105ac57829003601f168201915b5050505050908060010180546105de90611abb565b80601f016020809104026020016040519081016040528092919081815260200182805461060a90611abb565b80156106575780601f1061062c57610100808354040283529160200191610657565b820191906000526020600020905b81548152906001019060200180831161063a57829003601f168201915b5050505050908060020160009054906101000a900473ffffffffffffffffffffffffffffffffffffffff16908060030154908060040154908060050160009054906101000a900473ffffffffffffffffffffffffffffffffffffffff16908060050160149054906101000a900460ff16908060050160159054906101000a900460ff16905088565b6106e7611115565b600560008473ffffffffffffffffffffffffffffffffffffffff1673ffffffffffffffffffffffffffffffffffffffff16815260200190815260200160002060008381526020019081526020016000206040518061010001604052908160008201805461075390611abb565b80601f016020809104026020016040519081016040528092919081815260200182805461077f90611abb565b80156107cc5780601f106107a1576101008083540402835291602001916107cc565b820191906000526020600020905b8154815290600101906020018083116107af57829003601f168201915b505050505081526020016001820180546107e590611abb565b80601f016020809104026020016040519081016040528092919081815260200182805461081190611abb565b801561085e5780601f106108335761010080835404028352916020019161085e565b820191906000526020600020905b81548152906001019060200180831161084157829003601f168201915b505050505081526020016002820160009054906101000a900473ffffffffffffffffffffffffffffffffffffffff1673ffffffffffffffffffffffffffffffffffffffff1673ffffffffffffffffffffffffffffffffffffffff16815260200160038201548152602001600482015481526020016005820160009054906101000a900473ffffffffffffffffffffffffffffffffffffffff1673ffffffffffffffffffffffffffffffffffffffff1673ffffffffffffffffffffffffffffffffffffffff1681526020016005820160149054906101000a900460ff161515151581526020016005820160159054906101000a900460ff161515151581525050905092915050565b34600180836109749190611aec565b8154811061098557610984611b20565b5b906000526020600020906006020160040154146109d7576040517f08c379a00000000000000000000000000000000000000000000000000000000081526004016109ce90611bc1565b60405180910390fd5b3373ffffffffffffffffffffffffffffffffffffffff16600180836109fc9190611aec565b81548110610a0d57610a0c611b20565b5b906000526020600020906006020160020160009054906101000a900473ffffffffffffffffffffffffffffffffffffffff1673ffffffffffffffffffffffffffffffffffffffff1603610a95576040517f08c379a0000000000000000000000000000000000000000000000000000000008152600401610a8c90611c2d565b60405180910390fd5b3360018083610aa49190611aec565b81548110610ab557610ab4611b20565b5b906000526020600020906006020160050160006101000a81548173ffffffffffffffffffffffffffffffffffffffff021916908373ffffffffffffffffffffffffffffffffffffffff160217905550600180600183610b149190611aec565b81548110610b2557610b24611b20565b5b906000526020600020906006020160050160156101000a81548160ff02191690831515021790555060001515600360003373ffffffffffffffffffffffffffffffffffffffff1673ffffffffffffffffffffffffffffffffffffffff16815260200190815260200160002060009054906101000a900460ff16151503610c59576002339080600181540180825580915050600190039060005260206000200160009091909190916101000a81548173ffffffffffffffffffffffffffffffffffffffff021916908373ffffffffffffffffffffffffffffffffffffffff16021790555060011515600360003373ffffffffffffffffffffffffffffffffffffffff1673ffffffffffffffffffffffffffffffffffffffff16815260200190815260200160002060009054906101000a905050505b6001600460003373ffffffffffffffffffffffffffffffffffffffff1673ffffffffffffffffffffffffffffffffffffffff1681526020019081526020016000206000828254610ca99190611c4d565b9250508190555060018082610cbe9190611aec565b81548110610ccf57610cce611b20565b5b9060005260206000209060060201600560003373ffffffffffffffffffffffffffffffffffffffff1673ffffffffffffffffffffffffffffffffffffffff16815260200190815260200160002060008381526020019081526020016000206000820181600001908054610d4190611abb565b610d4c929190611210565b506001820181600101908054610d6190611abb565b610d6c929190611210565b506002820160009054906101000a900473ffffffffffffffffffffffffffffffffffffffff168160020160006101000a81548173ffffffffffffffffffffffffffffffffffffffff021916908373ffffffffffffffffffffffffffffffffffffffff16021790555060038201548160030155600482015481600401556005820160009054906101000a900473ffffffffffffffffffffffffffffffffffffffff168160050160006101000a81548173ffffffffffffffffffffffffffffffffffffffff021916908373ffffffffffffffffffffffffffffffffffffffff1602179055506005820160149054906101000a900460ff168160050160146101000a81548160ff0219169083151502179055506005820160159054906101000a900460ff168160050160156101000a81548160ff0219169083151502179055509050503373ffffffffffffffffffffffffffffffffffffffff1660018083610ed19190611aec565b81548110610ee257610ee1611b20565b5b906000526020600020906006020160050160009054906101000a900473ffffffffffffffffffffffffffffffffffffffff1673ffffffffffffffffffffffffffffffffffffffff1614610f6a576040517f08c379a0000000000000000000000000000000000000000000000000000000008152600401610f6190611cef565b60405180910390fd5b60018082610f789190611aec565b81548110610f8957610f88611b20565b5b906000526020600020906006020160020160009054906101000a900473ffffffffffffffffffffffffffffffffffffffff1673ffffffffffffffffffffffffffffffffffffffff166108fc60018084610fe29190611aec565b81548110610ff357610ff2611b20565b5b9060005260206000209060060201600401549081150290604051600060405180830381858888f19350505050158015611030573d6000803e3d6000fd5b506001600660003373ffffffffffffffffffffffffffffffffffffffff1673ffffffffffffffffffffffffffffffffffffffff168152602001908152602001600020600083815260200190815260200160002060006101000a81548160ff0219169083151502179055507f2c9b5e9655a41ab13c5183c231239df125ecbd546a947624c913cfd43094906e81336040516110cb929190611d0f565b60405180910390a150565b600281815481106110e657600080fd5b906000526020600020016000915054906101000a900473ffffffffffffffffffffffffffffffffffffffff1681565b6040518061010001604052806060815260200160608152602001600073ffffffffffffffffffffffffffffffffffffffff1681526020016000815260200160008152602001600073ffffffffffffffffffffffffffffffffffffffff1681526020016000151581526020016000151581525090565b82805461119690611abb565b90600052602060002090601f0160209004810192826111b857600085556111ff565b82601f106111d157805160ff19168380011785556111ff565b828001600101855582156111ff579182015b828111156111fe5782518255916020019190600101906111e3565b5b50905061120c919061129d565b5090565b82805461121c90611abb565b90600052602060002090601f01602090048101928261123e576000855561128c565b82601f1061124f578054855561128c565b8280016001018555821561128c57600052602060002091601f016020900482015b8281111561128b578254825591600101919060010190611270565b5b509050611299919061129d565b5090565b5b808211156112b657600081600090555060010161129e565b5090565b6000604051905090565b600080fd5b600080fd5b600073ffffffffffffffffffffffffffffffffffffffff82169050919050565b60006112f9826112ce565b9050919050565b611309816112ee565b811461131457600080fd5b50565b60008135905061132681611300565b92915050565b6000819050919050565b61133f8161132c565b811461134a57600080fd5b50565b60008135905061135c81611336565b92915050565b60008060408385031215611379576113786112c4565b5b600061138785828601611317565b92505060206113988582860161134d565b9150509250929050565b60008115159050919050565b6113b7816113a2565b82525050565b60006020820190506113d260008301846113ae565b92915050565b600080fd5b600080fd5b6000601f19601f8301169050919050565b7f4e487b7100000000000000000000000000000000000000000000000000000000600052604160045260246000fd5b61142b826113e2565b810181811067ffffffffffffffff8211171561144a576114496113f3565b5b80604052505050565b600061145d6112ba565b90506114698282611422565b919050565b600067ffffffffffffffff821115611489576114886113f3565b5b611492826113e2565b9050602081019050919050565b82818337600083830152505050565b60006114c16114bc8461146e565b611453565b9050828152602081018484840111156114dd576114dc6113dd565b5b6114e884828561149f565b509392505050565b600082601f830112611505576115046113d8565b5b81356115158482602086016114ae565b91505092915050565b600080600060608486031215611537576115366112c4565b5b600084013567ffffffffffffffff811115611555576115546112c9565b5b611561868287016114f0565b935050602084013567ffffffffffffffff811115611582576115816112c9565b5b61158e868287016114f0565b925050604061159f8682870161134d565b9150509250925092565b6000602082840312156115bf576115be6112c4565b5b60006115cd84828501611317565b91505092915050565b6115df8161132c565b82525050565b60006020820190506115fa60008301846115d6565b92915050565b600060208284031215611616576116156112c4565b5b60006116248482850161134d565b91505092915050565b600081519050919050565b600082825260208201905092915050565b60005b8381101561166757808201518184015260208101905061164c565b83811115611676576000848401525b50505050565b60006116878261162d565b6116918185611638565b93506116a1818560208601611649565b6116aa816113e2565b840191505092915050565b60006116c0826112ce565b9050919050565b6116d0816116b5565b82525050565b6116df816112ee565b82525050565b6000610100820190508181036000830152611700818b61167c565b90508181036020830152611714818a61167c565b905061172360408301896116c7565b61173060608301886115d6565b61173d60808301876115d6565b61174a60a08301866116d6565b61175760c08301856113ae565b61176460e08301846113ae565b9998505050505050505050565b600082825260208201905092915050565b600061178d8261162d565b6117978185611771565b93506117a7818560208601611649565b6117b0816113e2565b840191505092915050565b6117c4816116b5565b82525050565b6117d38161132c565b82525050565b6117e2816112ee565b82525050565b6117f1816113a2565b82525050565b60006101008301600083015184820360008601526118158282611782565b9150506020830151848203602086015261182f8282611782565b915050604083015161184460408601826117bb565b50606083015161185760608601826117ca565b50608083015161186a60808601826117ca565b5060a083015161187d60a08601826117d9565b5060c083015161189060c08601826117e8565b5060e08301516118a360e08601826117e8565b508091505092915050565b600060208201905081810360008301526118c881846117f7565b905092915050565b60006020820190506118e560008301846116d6565b92915050565b7f5468652050726963652073686f756c642062652067726561746572207468616e60008201527f207a65726f000000000000000000000000000000000000000000000000000000602082015250565b6000611947602583611638565b9150611952826118eb565b604082019050919050565b600060208201905081810360008301526119768161193a565b9050919050565b7f4e487b7100000000000000000000000000000000000000000000000000000000600052601160045260246000fd5b60006119b78261132c565b91506119c28361132c565b9250817fffffffffffffffffffffffffffffffffffffffffffffffffffffffffffffffff04831182151516156119fb576119fa61197d565b5b828202905092915050565b6000611a118261132c565b91507fffffffffffffffffffffffffffffffffffffffffffffffffffffffffffffffff8203611a4357611a4261197d565b5b600182019050919050565b60006060820190508181036000830152611a68818661167c565b9050611a7760208301856115d6565b611a8460408301846116d6565b949350505050565b7f4e487b7100000000000000000000000000000000000000000000000000000000600052602260045260246000fd5b60006002820490506001821680611ad357607f821691505b602082108103611ae657611ae5611a8c565b5b50919050565b6000611af78261132c565b9150611b028361132c565b925082821015611b1557611b1461197d565b5b828203905092915050565b7f4e487b7100000000000000000000000000000000000000000000000000000000600052603260045260246000fd5b7f5061792074686520657861637420616d6f756e74206f66207468652070726f6460008201527f7563740000000000000000000000000000000000000000000000000000000000602082015250565b6000611bab602383611638565b9150611bb682611b4f565b604082019050919050565b60006020820190508181036000830152611bda81611b9e565b9050919050565b7f73656c6c657250414e2063616e6e6f742062652074686520627579657250414e600082015250565b6000611c17602083611638565b9150611c2282611be1565b602082019050919050565b60006020820190508181036000830152611c4681611c0a565b9050919050565b6000611c588261132c565b9150611c638361132c565b9250827fffffffffffffffffffffffffffffffffffffffffffffffffffffffffffffffff03821115611c9857611c9761197d565b5b828201905092915050565b7f4f6e6c7920627579657250414e2063616e20636f6e6669726d20697400000000600082015250565b6000611cd9601c83611638565b9150611ce482611ca3565b602082019050919050565b60006020820190508181036000830152611d0881611ccc565b9050919050565b6000604082019050611d2460008301856115d6565b611d3160208301846116d6565b939250505056fea2646970667358221220024842d1c80eb5e1e1ab732317363562945dd5aecc15a3280ea3d3abcc145a3964736f6c634300080d0033",
  "immutableReferences": {},
  "source": "// SPDX-License-Identifier: MIT\r\npragma solidity <0.9.0;\r\n\r\ncontract Invoice {\r\n\r\n    struct Product {\r\n        string title;\r\n        string desc;\r\n        address payable sellerPAN;\r\n        uint productId;\r\n        uint price;\r\n        address buyerPAN;\r\n        bool registered;\r\n        bool bought;\r\n    }\r\n\r\n    uint counter = 1;\r\n    Product[] public products;\r\n    address[] public buyers;\r\n\r\n    mapping(address => bool) isBuyer;\r\n    mapping(address => uint) itemsBoughtByBuyer;\r\n    mapping(address => mapping(uint => Product)) detailsOfProductBoughtByOwner;\r\n    mapping(address => mapping(uint => bool)) paymentStatus;\r\n\r\n\r\n    event registered(string title, uint productId, address sellerPAN);\r\n    event bought(uint productId, address buyerPAN);\r\n    \r\n    function registerProduct(string memory _title, string memory _desc, uint _price) public {\r\n        require(_price > 0, 'The Price should be greater than zero');\r\n        Product memory tempProduct;\r\n        tempProduct.title = _title;\r\n        tempProduct.desc = _desc;\r\n        tempProduct.price = _price * 10 ** 18;\r\n        tempProduct.sellerPAN = payable(msg.sender);\r\n        tempProduct.productId = counter;\r\n        tempProduct.registered = true;\r\n        products.push(tempProduct);\r\n        counter++;\r\n        emit registered(_title, tempProduct.productId, msg.sender);\r\n    }\r\n\r\n    function buy(uint _productId) payable public{\r\n        require(products[_productId-1].price == msg.value, 'Pay the exact amount of the product');\r\n        require(products[_productId-1].sellerPAN != msg.sender, 'sellerPAN cannot be the buyerPAN');\r\n        products[_productId-1].buyerPAN = msg.sender;\r\n        products[_productId-1].bought = true;\r\n        if(isBuyer[msg.sender] == false){\r\n            buyers.push(msg.sender);\r\n            isBuyer[msg.sender] == true;\r\n        }\r\n        itemsBoughtByBuyer[msg.sender] += 1;\r\n        detailsOfProductBoughtByOwner[msg.sender][_productId] = products[_productId-1];\r\n        require(products[_productId-1].buyerPAN == msg.sender, 'Only buyerPAN can confirm it');\r\n        products[_productId-1].sellerPAN.transfer(products[_productId-1].price);\r\n        paymentStatus[msg.sender][_productId] = true;\r\n        emit bought(_productId, msg.sender);\r\n    }\r\n\r\n    function noOfItemsBoughtBy(address _address) public view returns(uint) {\r\n        return itemsBoughtByBuyer[_address];\r\n    }\r\n\r\n    function getDetailsOfProductBoughtBy(address _address, uint _productId) public view returns(Product memory){\r\n        return detailsOfProductBoughtByOwner[_address][_productId];\r\n    }\r\n\r\n    function checkPaymentStatus(address _address, uint _productId) public view returns(bool) {\r\n        bool status = paymentStatus[_address][_productId];\r\n        return status;\r\n    }\r\n    \r\n}\r\n",
  "sourcePath": "D:\\Blockchain\\e-commerce-platform-evm\\src\\contracts\\Invoice.sol",
  "compiler": {
    "name": "solc",
    "version": "0.8.13+commit.abaa5c0e.Emscripten.clang"
  },
  "schemaVersion": "3.4.7",
  "updatedAt": "2022-09-02T18:04:08.176Z",
  "networkType": "ethereum",
  "devdoc": {
    "kind": "dev",
    "methods": {},
    "version": 1
  },
  "userdoc": {
    "kind": "user",
    "methods": {},
    "version": 1
  }
}